{
  "contractName": "CallTest",
  "abi": [
    {
      "anonymous": false,
      "inputs": [
        {
          "indexed": false,
          "name": "to",
          "type": "address"
        },
        {
          "indexed": false,
          "name": "value",
          "type": "uint256"
        }
      ],
      "name": "logSendEvent",
      "type": "event"
    },
    {
      "constant": false,
      "inputs": [],
      "name": "deposit",
      "outputs": [],
      "payable": true,
      "stateMutability": "payable",
      "type": "function"
    },
    {
      "constant": false,
      "inputs": [
        {
          "name": "towho",
          "type": "address"
        }
      ],
      "name": "transferEther",
      "outputs": [],
      "payable": true,
      "stateMutability": "payable",
      "type": "function"
    },
    {
      "constant": false,
      "inputs": [
        {
          "name": "addr",
          "type": "address"
        }
      ],
      "name": "callNoFunc",
      "outputs": [
        {
          "name": "",
          "type": "bool"
        }
      ],
      "payable": false,
      "stateMutability": "nonpayable",
      "type": "function"
    },
    {
      "constant": false,
      "inputs": [
        {
          "name": "addr",
          "type": "address"
        }
      ],
      "name": "callfunc",
      "outputs": [
        {
          "name": "",
          "type": "bool"
        }
      ],
      "payable": false,
      "stateMutability": "nonpayable",
      "type": "function"
    },
    {
      "constant": false,
      "inputs": [],
      "name": "getBalance",
      "outputs": [
        {
          "name": "",
          "type": "uint256"
        }
      ],
      "payable": false,
      "stateMutability": "nonpayable",
      "type": "function"
    }
  ],
  "bytecode": "0x608060405234801561001057600080fd5b506102f9806100206000396000f3fe60806040526004361061004a5760003560e01c806312065fe01461004f578063584c5a041461007a5780636b55e991146100e3578063816cd85e14610127578063d0e30db014610190575b600080fd5b34801561005b57600080fd5b5061006461019a565b6040518082815260200191505060405180910390f35b34801561008657600080fd5b506100c96004803603602081101561009d57600080fd5b81019080803573ffffffffffffffffffffffffffffffffffffffff1690602001909291905050506101b9565b604051808215151515815260200191505060405180910390f35b610125600480360360208110156100f957600080fd5b81019080803573ffffffffffffffffffffffffffffffffffffffff1690602001909291905050506101c9565b005b34801561013357600080fd5b506101766004803603602081101561014a57600080fd5b81019080803573ffffffffffffffffffffffffffffffffffffffff169060200190929190505050610280565b604051808215151515815260200191505060405180910390f35b6101986102cb565b005b60003073ffffffffffffffffffffffffffffffffffffffff1631905090565b6000806001905080915050919050565b8073ffffffffffffffffffffffffffffffffffffffff166108fc600a9081150290604051600060405180830381858888f19350505050158015610210573d6000803e3d6000fd5b507f843274b1501cdcbdd49af3e4cfd3c0332ea2a92bdf82e9d97f2ca51937ef855881600a604051808373ffffffffffffffffffffffffffffffffffffffff1673ffffffffffffffffffffffffffffffffffffffff1681526020018281526020019250505060405180910390a150565b60008060405180807f73657453636f72652875696e74323536290000000000000000000000000000008152506011019050604051809103902090506000600190508092505050919050565b56fea165627a7a7230582074a297981b3d68f46faa06d275ffb20a7f531c8986c9a014baf4866331ca72ea0029",
  "source": "pragma solidity > 0.4.0  < 0.70 ;\n\ncontract run {\n    // address myAddress = this;\n\n    event logdata(bytes data);\n    function() payable external {\n        emit logdata(msg.data);\n    }\n\n    function getBalance() public returns (uint) {\n        return address(this).balance;\n    }\n\n    uint score = 0;\n    function setScore(uint s) public {\n        score = s;\n    }\n\n    function getScore() public returns ( uint){\n        return score;\n    }\n}\n\ncontract CallTest{\n    function deposit() public payable {\n    }\n\n    event logSendEvent(address to, uint value);\n    function transferEther(address payable towho) public payable {\n        towho.transfer(10);\n        emit logSendEvent(towho, 10);\n    }\n\n    function callNoFunc(address addr) public returns (bool){\n        bool result;\n        //result=addr.call(\"tinyxiong\", 1234);\n        result=true;\n        return result;\n    }\n\n    function callfunc(address addr) public returns (bool){\n        bytes4 methodId = bytes4(keccak256(\"setScore(uint256)\"));\n        bool result=true;\n        //return addr.call(methodId, 100);\n        return result;\n    }\n\n    function getBalance() public returns (uint) {\n        return address(this).balance;\n    }\n}\n",
  "sourcePath": "/Users/liqinghua/git/GoWork/src/crawl/contracts/run.sol",
  "compiler": {
    "name": "solc",
    "version": "0.5.8+commit.23d335f2.Emscripten.clang"
  },
  "schemaVersion": "3.0.11",
  "updatedAt": "2019-08-08T03:35:39.844Z",
  "devdoc": {
    "methods": {}
  },
  "userdoc": {
    "methods": {}
  }
}