{
  "contractName": "InfoContract",
  "abi": [
    {
      "constant": false,
      "inputs": [
        {
          "name": "_fName",
          "type": "string"
        },
        {
          "name": "_age",
          "type": "uint256"
        }
      ],
      "name": "setInfo",
      "outputs": [],
      "payable": false,
      "stateMutability": "nonpayable",
      "type": "function"
    },
    {
      "constant": true,
      "inputs": [],
      "name": "getInfo",
      "outputs": [
        {
          "name": "",
          "type": "string"
        },
        {
          "name": "",
          "type": "uint256"
        }
      ],
      "payable": false,
      "stateMutability": "view",
      "type": "function"
    }
  ],
  "bytecode": "0x608060405234801561001057600080fd5b50610329806100206000396000f3fe608060405234801561001057600080fd5b50600436106100365760003560e01c80635a9b0b891461003b5780638262963b146100c5575b600080fd5b61004361018a565b6040518080602001838152602001828103825284818151815260200191508051906020019080838360005b8381101561008957808201518184015260208101905061006e565b50505050905090810190601f1680156100b65780820380516001836020036101000a031916815260200191505b50935050505060405180910390f35b610188600480360360408110156100db57600080fd5b81019080803590602001906401000000008111156100f857600080fd5b82018360208201111561010a57600080fd5b8035906020019184600183028401116401000000008311171561012c57600080fd5b91908080601f016020809104026020016040519081016040528093929190818152602001838380828437600081840152601f19601f82011690508083019250505050505050919291929080359060200190929190505050610236565b005b6060600080600154818054600181600116156101000203166002900480601f0160208091040260200160405190810160405280929190818152602001828054600181600116156101000203166002900480156102275780601f106101fc57610100808354040283529160200191610227565b820191906000526020600020905b81548152906001019060200180831161020a57829003601f168201915b50505050509150915091509091565b816000908051906020019061024c929190610258565b50806001819055505050565b828054600181600116156101000203166002900490600052602060002090601f016020900481019282601f1061029957805160ff19168380011785556102c7565b828001600101855582156102c7579182015b828111156102c65782518255916020019190600101906102ab565b5b5090506102d491906102d8565b5090565b6102fa91905b808211156102f65760008160009055506001016102de565b5090565b9056fea165627a7a72305820fa4122f91557458c12ac2f3247bbc54c8fa56dfa668318c5468464696dd2dc740029",
  "source": "pragma solidity >0.4.0 <0.7.0;\n\ncontract InfoContract {\n\n    string fName;\n    uint age;\n\n    function setInfo(string memory _fName, uint _age) public {\n        fName = _fName;\n        age = _age;\n    }\n\n    function getInfo() public view returns (string memory, uint) {\n        return (fName, age);\n    }\n}\n",
  "sourcePath": "/Users/liqinghua/git/GoWork/src/crawl/contracts/check.sol",
  "compiler": {
    "name": "solc",
    "version": "0.5.8+commit.23d335f2.Emscripten.clang"
  },
  "schemaVersion": "3.0.11",
  "updatedAt": "2019-08-08T03:35:39.841Z",
  "devdoc": {
    "methods": {}
  },
  "userdoc": {
    "methods": {}
  }
}