{
  "contractName": "Oracle",
  "abi": [
    {
      "anonymous": false,
      "inputs": [
        {
          "indexed": false,
          "name": "",
          "type": "uint256"
        }
      ],
      "name": "NewRequest",
      "type": "event"
    },
    {
      "constant": false,
      "inputs": [
        {
          "name": "data",
          "type": "bytes"
        },
        {
          "name": "callback",
          "type": "function"
        }
      ],
      "name": "query",
      "outputs": [],
      "payable": false,
      "stateMutability": "nonpayable",
      "type": "function"
    },
    {
      "constant": false,
      "inputs": [
        {
          "name": "requestID",
          "type": "uint256"
        },
        {
          "name": "response",
          "type": "bytes"
        }
      ],
      "name": "reply",
      "outputs": [],
      "payable": false,
      "stateMutability": "nonpayable",
      "type": "function"
    }
  ],
  "bytecode": "0x608060405234801561001057600080fd5b506104e2806100206000396000f3fe608060405234801561001057600080fd5b50600436106100365760003560e01c8063b21faa4a1461003b578063d72d677014610100575b600080fd5b6100fe6004803603604081101561005157600080fd5b81019080803590602001909291908035906020019064010000000081111561007857600080fd5b82018360208201111561008a57600080fd5b803590602001918460018302840111640100000000831117156100ac57600080fd5b91908080601f016020809104026020016040519081016040528093929190818152602001838380828437600081840152601f19601f8201169050808301925050505050505091929192905050506101f4565b005b6101f26004803603604081101561011657600080fd5b810190808035906020019064010000000081111561013357600080fd5b82018360208201111561014557600080fd5b8035906020019184600183028401116401000000008311171561016757600080fd5b91908080601f016020809104026020016040519081016040528093929190818152602001838380828437600081840152601f19601f82011690508083019250505050505050919291929080358060601c9060401c63ffffffff1677ffffffffffffffffffffffffffffffffffffffffffffffff169091602001919093929190939291905050506102f6565b005b6000828154811061020157fe5b906000526020600020906002020160010160009054906101000a90048060201c73ffffffffffffffffffffffffffffffffffffffff169063ffffffff16826040518263ffffffff1660e01b81526004018080602001828103825283818151815260200191508051906020019080838360005b8381101561028e578082015181840152602081019050610273565b50505050905090810190601f1680156102bb5780820380516001836020036101000a031916815260200191505b5092505050600060405180830381600087803b1580156102da57600080fd5b505af11580156102ee573d6000803e3d6000fd5b505050505050565b60006040518060400160405280858152602001848463ffffffff169060201b1760401b815250908060018154018082558091505090600182039060005260206000209060020201600090919290919091506000820151816000019080519060200190610363929190610411565b5060208201518060601c9060401c63ffffffff168260010160006101000a81548177ffffffffffffffffffffffffffffffffffffffffffffffff02191690848463ffffffff169073ffffffffffffffffffffffffffffffffffffffff1660201b170217905550505050507fe5e7dd91b3ed7fb84c335f117423d1b9bbbed2d76c57e81520dd681b9ede98856001600080549050036040518082815260200191505060405180910390a1505050565b828054600181600116156101000203166002900490600052602060002090601f016020900481019282601f1061045257805160ff1916838001178555610480565b82800160010185558215610480579182015b8281111561047f578251825591602001919060010190610464565b5b50905061048d9190610491565b5090565b6104b391905b808211156104af576000816000905550600101610497565b5090565b9056fea165627a7a723058206bc1ca129a42e62088733498f51699fd130f9d64f581fc538a2160e06366b3ef0029",
  "source": "pragma solidity >0.4.0 <0.70;\n\ncontract Oracle {\n    struct Request {\n        bytes data;\n        function(bytes memory) external callback;\n    }\n    Request[] requests;\n    event NewRequest(uint);\n    function query(bytes memory data, function(bytes memory) external callback) public {\n        requests.push(Request(data, callback));\n        emit NewRequest(requests.length - 1);\n    }\n    function reply(uint requestID, bytes memory response) public {\n        // Here goes the check that the reply comes from a trusted source\n        requests[requestID].callback(response);\n    }\n}\n\ncontract OracleUser {\n    Oracle constant oracle = Oracle(0x1234567); // known contract\n    function buySomething() public {\n        oracle.query(\"USD\", this.oracleResponse);\n    }\n    function oracleResponse(bytes memory response) public view {\n        require(msg.sender == address(oracle));\n        // Use the data\n    }\n}\n",
  "sourcePath": "/Users/liqinghua/git/GoWork/src/crawl/contracts/MyOracle.sol",
  "compiler": {
    "name": "solc",
    "version": "0.5.8+commit.23d335f2.Emscripten.clang"
  },
  "schemaVersion": "3.0.11",
  "updatedAt": "2019-08-08T03:35:39.839Z",
  "devdoc": {
    "methods": {}
  },
  "userdoc": {
    "methods": {}
  }
}