{
  "contractName": "Pyramid",
  "abi": [
    {
      "constant": true,
      "inputs": [
        {
          "name": "l",
          "type": "uint256"
        }
      ],
      "name": "pyramid",
      "outputs": [
        {
          "name": "",
          "type": "uint256"
        }
      ],
      "payable": false,
      "stateMutability": "pure",
      "type": "function"
    }
  ],
  "bytecode": "0x608060405234801561001057600080fd5b50610250806100206000396000f3fe608060405234801561001057600080fd5b506004361061002b5760003560e01c8063a2eeb5d414610030575b600080fd5b61005c6004803603602081101561004657600080fd5b8101908080359060200190929190505050610072565b6040518082815260200191505060405180910390f35b60006100a56100ac6100976100b9610089866100c5565b61013490919063ffffffff16565b6101c490919063ffffffff16565b9050919050565b6000818301905092915050565b60008182029050919050565b6060816040519080825280602002602001820160405280156100f65781602001602082028038833980820191505090505b50905060008090505b815181101561012e578082828151811061011557fe5b60200260200101818152505080806001019150506100ff565b50919050565b606082516040519080825280602002602001820160405280156101665781602001602082028038833980820191505090505b50905060008090505b83518110156101bd5761019884828151811061018757fe5b60200260200101518463ffffffff16565b8282815181106101a457fe5b602002602001018181525050808060010191505061016f565b5092915050565b6000826000815181106101d357fe5b602002602001015190506000600190505b835181101561021d5761020e828583815181106101fd57fe5b60200260200101518563ffffffff16565b915080806001019150506101e4565b509291505056fea165627a7a723058203cf20d8f44c70ee883d2505eba0cf432e2a068f9befc565e6fea3ea432dd297c0029",
  "source": "pragma solidity >0.4.0 <0.70;\n\nlibrary ArrayUtils {\n    // internal functions can be used in internal library functions because\n    // they will be part of the same code context\n    function map(uint[] memory self, function (uint) pure returns (uint) f)\n    internal\n    pure\n    returns (uint[] memory r)\n    {\n        r = new uint[](self.length);\n        for (uint i = 0; i < self.length; i++) {\n            r[i] = f(self[i]);\n        }\n    }\n    function reduce(\n        uint[] memory self,\n        function (uint, uint) pure returns (uint) f\n    )\n    internal\n    pure\n    returns (uint r)\n    {\n        r = self[0];\n        for (uint i = 1; i < self.length; i++) {\n            r = f(r, self[i]);\n        }\n    }\n    function range(uint length) internal pure returns (uint[] memory r) {\n        r = new uint[](length);\n        for (uint i = 0; i < r.length; i++) {\n            r[i] = i;\n        }\n    }\n}\n\ncontract Pyramid {\n    using ArrayUtils for *;\n    function pyramid(uint l) public pure returns (uint) {\n        return ArrayUtils.range(l).map(square).reduce(sum);\n    }\n    function square(uint x) internal pure returns (uint) {\n        return x * x;\n    }\n    function sum(uint x, uint y) internal pure returns (uint) {\n        return x + y;\n    }\n}",
  "sourcePath": "/Users/liqinghua/git/GoWork/src/crawl/contracts/libsc.sol",
  "compiler": {
    "name": "solc",
    "version": "0.5.8+commit.23d335f2.Emscripten.clang"
  },
  "schemaVersion": "3.0.11",
  "updatedAt": "2019-08-08T03:35:39.842Z",
  "devdoc": {
    "methods": {}
  },
  "userdoc": {
    "methods": {}
  }
}