{
  "contractName": "run",
  "abi": [
    {
      "payable": true,
      "stateMutability": "payable",
      "type": "fallback"
    },
    {
      "anonymous": false,
      "inputs": [
        {
          "indexed": false,
          "name": "data",
          "type": "bytes"
        }
      ],
      "name": "logdata",
      "type": "event"
    },
    {
      "constant": false,
      "inputs": [],
      "name": "getBalance",
      "outputs": [
        {
          "name": "",
          "type": "uint256"
        }
      ],
      "payable": false,
      "stateMutability": "nonpayable",
      "type": "function"
    },
    {
      "constant": false,
      "inputs": [
        {
          "name": "s",
          "type": "uint256"
        }
      ],
      "name": "setScore",
      "outputs": [],
      "payable": false,
      "stateMutability": "nonpayable",
      "type": "function"
    },
    {
      "constant": false,
      "inputs": [],
      "name": "getScore",
      "outputs": [
        {
          "name": "",
          "type": "uint256"
        }
      ],
      "payable": false,
      "stateMutability": "nonpayable",
      "type": "function"
    }
  ],
  "bytecode": "0x60806040526000805534801561001457600080fd5b50610189806100246000396000f3fe6080604052600436106100345760003560e01c806312065fe01461009a578063422beeba146100c5578063afd8206714610100575b7f34920d37f800163b15fbdb7561da8052378b409e0fadd3b08a9aecaf3e7ef6c060003660405180806020018281038252848482818152602001925080828437600081840152601f19601f820116905080830192505050935050505060405180910390a1005b3480156100a657600080fd5b506100af61012b565b6040518082815260200191505060405180910390f35b3480156100d157600080fd5b506100fe600480360360208110156100e857600080fd5b810190808035906020019092919050505061014a565b005b34801561010c57600080fd5b50610115610154565b6040518082815260200191505060405180910390f35b60003073ffffffffffffffffffffffffffffffffffffffff1631905090565b8060008190555050565b6000805490509056fea165627a7a72305820f8eb69339a2d4ec2be54b652486552963772bd5195c708e9957eb1477a3ec1a90029",
  "source": "pragma solidity > 0.4.0  < 0.70 ;\n\ncontract run {\n    // address myAddress = this;\n\n    event logdata(bytes data);\n    function() payable external {\n        emit logdata(msg.data);\n    }\n\n    function getBalance() public returns (uint) {\n        return address(this).balance;\n    }\n\n    uint score = 0;\n    function setScore(uint s) public {\n        score = s;\n    }\n\n    function getScore() public returns ( uint){\n        return score;\n    }\n}\n\ncontract CallTest{\n    function deposit() public payable {\n    }\n\n    event logSendEvent(address to, uint value);\n    function transferEther(address payable towho) public payable {\n        towho.transfer(10);\n        emit logSendEvent(towho, 10);\n    }\n\n    function callNoFunc(address addr) public returns (bool){\n        bool result;\n        //result=addr.call(\"tinyxiong\", 1234);\n        result=true;\n        return result;\n    }\n\n    function callfunc(address addr) public returns (bool){\n        bytes4 methodId = bytes4(keccak256(\"setScore(uint256)\"));\n        bool result=true;\n        //return addr.call(methodId, 100);\n        return result;\n    }\n\n    function getBalance() public returns (uint) {\n        return address(this).balance;\n    }\n}\n",
  "sourcePath": "/Users/liqinghua/git/GoWork/src/crawl/contracts/run.sol",
  "compiler": {
    "name": "solc",
    "version": "0.5.8+commit.23d335f2.Emscripten.clang"
  },
  "schemaVersion": "3.0.11",
  "updatedAt": "2019-08-08T03:35:39.845Z",
  "devdoc": {
    "methods": {}
  },
  "userdoc": {
    "methods": {}
  }
}